:020000041000EA
:1000000000B5324B212058609868022188439860DF
:10001000D860186158612E4B002199600221596106
:100020000121F02299502B49196001219960352056
:1000300000F044F80222904214D00621196600F024
:1000400034F8196E01211966002018661A6600F04E
:100050002CF8196E196E196E052000F02FF8012189
:100060000842F9D1002199601B49196000215960AB
:100070001A491B48016001219960EB211966A021F2
:10008000196600F012F800219960164914480160C1
:100090000121996001BC002800D000471248134993
:1000A000086003C880F30888084703B5996A0420EC
:1000B0000142FBD001200142F8D103BD02B5186610
:1000C0001866FFF7F2FF186E186E02BD00000240BE
:1000D000000000180000070000035F00212200005C
:1000E000F4000018222000A00001001008ED00E03C
:1000F00000000000000000000000000074B24E7A12
:1001000000200420F7010010C3010010C5010010F9
:10011000C1010010C1010010C1010010C101001097
:10012000C1010010C1010010C1010010C701001081
:10013000C1010010C1010010C9010010CB01001065
:10014000CD010010CD010010CD010010CD01001037
:10015000CD010010CD010010CD010010CD01001027
:10016000CD010010CD010010CD010010CD01001017
:10017000CD010010CD010010CD010010CD01001007
:10018000CD010010CD010010CD010010CD010010F7
:10019000CD010010CD010010CD010010CD010010E7
:1001A000CD010010CD010010CD010010CD010010D7
:1001B000CD010010CD010010CD010010CD010010C7
:1001C00000BE00BE00BE00BE00BE00BEEFF3058054
:1001D000103800BEF2EB88713853001060530010E5
:1001E0003802001090A31AE71E481F49086006C88D
:1001F00081F3088810471D480068002801D019487D
:10020000F3E70DA40ECC002902D000F012F8F9E7B4
:100210001749184A002000E001C19142FCD116495B
:100220008847164988471649884700BEFDE701C937
:1002300001C29A42FBD3704760530010C0000020F7
:1002400048020020E85400100000042000000420B0
:10025000E8540010001004200010042000000000EA
:10026000704700000000000008ED00E0000000D032
:100270004802002044060020493E0010D50200102C
:10028000413E0010F8B5C04606480749091A8B10D0
:10029000C90FC91810B5491003D0044B002B00D06A
:1002A000984710BD480200204802002000000000CE
:1002B000054B10B5002B03D00449054800E000BFF2
:1002C000FFF7E2FF10BDC046000000000806002056
:1002D000C84E0010F0B5DE4657464E464546E0B5DE
:1002E0009BB003F0EFFEFA20C00000F089FD4B4800
:1002F00003F038FF0023029301936833009314A89E
:1003000004224749633B04F0DFFA14A804F01CFB05
:10031000002806D1434803F025FF434803F022FF9D
:10032000FEE7424803F01EFF414B04AA0693414BEF
:10033000944607931623634499463F4B0EAD0593AD
:100340003E4B11AC9A463E4B9B463E4B049352E0CB
:100350000CA914A804F060FC00285BD0494614A83E
:1003600004F0ACFC002802D1059803F0FBFE2A0043
:100370000AA914A804F0FCFC22000CA914A804F09B
:1003800015FD4B460020185E04F0E4FC804628680A
:1003900002F062F80600A8680F0002F05DF8029013
:1003A0000391686802F058F832003B000090019118
:1003B000504603F05BFF206802F04EF80600A0688C
:1003C0000F0002F049F802900391606802F044F8CF
:1003D00032003B0000900191584603F047FF404631
:1003E00002F03AF802000B00049803F03FFFFA20F5
:1003F000400000F005FD0AA914A804F0BBFB00288A
:10040000A6D1069803F0AEFE0CA914A804F004FCD3
:100410000028A3D1079803F0A5FE9FE7C84E00105F
:1004200038020020E84E00100C4F00103C4F001026
:10043000604F00107C4F0010944F0010B04F001020
:10044000D44F001000500010094A83009A1810B5CC
:1004500014684022544080322240064CC000A4461A
:1004600063441A60044B9C466044416010BDC04622
:1004700004C0014004D0014000400140074B80000F
:10048000C3181B68C90092000A435A400C2313404A
:10049000034A9446604403607047C04604C001406C
:1004A00004D001400FB400B5084883B003F05AFEF1
:1004B000049B002B07D005A91800019103F0A6FCAE
:1004C000034803F04FFE012003F0B8FC1050001069
:1004D0002050001070B5EFF3108C72B60D4D2B68E4
:1004E000002BFCD0BFF35F8F0724CB08C618C05C7D
:1004F00001230C40A3401C000440034207D11843D1
:100500003070BFF35F8F2C608CF3108870BD1000CB
:10051000FFF7C8FF2C0100D0044A1078431CDBB25F
:10052000172B00D9102313707047C0469801002084
:100530000021044B044ABFF35F8F02C39342FAD1F8
:100540007047C046000100D0800100D0054B064A2C
:100550001360064A136053609360D3601361536164
:10056000936170478080808000E400E004E400E054
:100570001F2318401E3B8340002905D0C021044A98
:100580004900535013607047802201498B50FAE7AD
:1005900000E100E070B50D00EFF3108672B60F4A6F
:1005A0001368002BFCD0BFF35F8F0D4B10309B689E
:1005B00084001B590B4A934203D09D4201D000F0A6
:1005C000C1FF074B9B681D51BFF35F8FBFF35F8F68
:1005D0000022024B1A6086F3108870BD240100D0FF
:1005E00000ED00E0CD010010F0B5DE4657464E4666
:1005F0004546E0B50C0083B0EFF3108872B6634A4D
:100600001368002BFCD0BFF35F8F614B61499A6880
:10061000030010339F00D55901938D4243D0A5426A
:1006200054D05D4EAA1B2F2A3DD85C4B9B461B68BD
:10063000994601231A009C4682404B4613401F22D4
:1006400099466346024093409A4680225B46504654
:100650009850BFF35F8FEFF305839B46002B37D095
:10066000019B5B4501D000F06DFF01232A009A43F6
:100670009068844208D176E04B005B189B00F31829
:100680009868844236D01A00062151560029F3DAC0
:10069000844254D04B46002B27D0C02251463F4BBA
:1006A0005200995019603A4B9B68DD51BFF35F8F40
:1006B000BFF35F8F0022354B1A6088F3108803B0B8
:1006C000F0BCBB46B246A946A046F0BD0D00EAE725
:1006D0002A0063469A4390688442D5D1062010567A
:1006E000130000280ADA0D0031E0802351462B4A1E
:1006F000D150D8E706201856002821DB42001118F7
:10070000890074188B46A1689960E179D971062136
:1007100061569971002924DBA488F11A6405241517
:100720005C44091909051E4C490D21439980131891
:100730001C4A9B001178F31899711070AAE71300F6
:100740005946002914D1FF319171174991801549FB
:100750000A789A71154A9B1B5B415A43120D0A7025
:1007600098E71149E2E70620105613000028C5DA81
:100770000F4A1049D21A083A5002400D014399809D
:100780000D4952080A43DA8084E7C046240100D0AC
:1007900000ED00E0CD0100109C01002000E100E030
:1007A00000E0FFFF4006002001BDFFFFAAAA0000F5
:1007B000D601002000F0FFFF00F8FFFF70B5012414
:1007C0000443EFF30581EFF3108C72B6214A1368EE
:1007D000002BFCD0BFF35F8F1F4B05001F4AED1AA3
:1007E0006D416A43120D1E4D8900AE6852B27658B3
:1007F000A6421CD00621595691421CD012215956AE
:10080000914222D01E215956914220D02A21595678
:100810000324914210D0134B19781A708171BFF3E1
:100820005F8F00220B4B1A608CF3108870BDAB6891
:100830000D4C5C50EFE700246100091989005B183A
:10084000FF21997109499980E5E70124F4E7022421
:10085000F2E7C046240100D09C010020AAAA0000B3
:1008600000ED00E040060020CD01001001BDFFFFBB
:10087000024B9C466144890001607047400000348F
:1008800070B5114C114DAC420FD2FF262368002BDE
:100890000CD0FFF741FE01002000FFF7E9FFA68022
:1008A000BFF35F8F0834AC42F0D370BDFFF734FE66
:1008B00001002000FFF7DCFF2671BFF35F8F0834D3
:1008C000AC42E3D3F1E7C0464002002048020020DA
:1008D0000A4B1968EFF3108072B60A68002AFCD040
:1008E000BFF35F8F1B68BFF35F8F00221A6080F336
:1008F000108840BF002000217047C0463406002009
:10090000F0B5DE4657464E464546E0B587B0EFF3B4
:100910000583032201251A40954091008846A94687
:10092000B34B03925C58B34B1D60B34B04934B46DF
:10093000B24843630823E55E002D37DAA3881BB273
:10094000002B00DBADE0A379002B00D0EEE0082304
:10095000E05E002820DB430062691B18DB00D3182F
:100960009E68DD68731C00D111E1A4480100414478
:10097000826A0B69B71A9B1A9F4215D30123026A38
:10098000039883401A420FD09C4800F05FFB8D42D1
:1009900002DCCCD18642CAD940BF07B0F0BCBB460E
:1009A000B246A946A046F0BD0E61EDE762696B0054
:1009B00092465B19DB009A4453469E68DF6800F05C
:1009C00045FB8F42BADC00D103E1002F00DAE8E0FA
:1009D0005246534652691B699346049A934200D18A
:1009E000D9E052460821605E5288000459461043FF
:1009F0009847009001910099019A0B001000134351
:100A000000D1CEE013000A00B61A9F41002806DB91
:100A10007A4800F01BFB009E019F36184F41534659
:100A20009E60DF6000229A5E002A00DA86E75300AB
:100A300099186069C900411802938B68C9689B4680
:100A4000B94200DD7AE702D1B34200D976E7082344
:100A50009C46A444059565462281A446029B2C0031
:100A600006E053009918C90041188D68C968AB4663
:100A70009B18DB00C318B94206DC00D1B3E01C00B0
:100A80000023E25E002AECDA230064469C465346CB
:100A90001A806346059D1D80A3881BB2002B00DAD7
:100AA00051E72269EFF3108172B61368002BFCD076
:100AB000BFF35F8F0123A7885B42A3803FB2236906
:100AC000BFF35F8F00221A6081F31088002F00DAD5
:100AD00039E72300083322009A4666697B00DB1958
:100AE000DB00F318996850468C460824115FDD68D6
:100AF000002910DB029306E0AB4244D00023E15E04
:100B00002000002906DB4C006418E4003419E36877
:100B1000AB42F1DD029B078000201F5E1980002F91
:100B2000DCDA1400A379002B00D110E70023A371B5
:100B300026000823E15E08364B1C00D12CE7080094
:100B4000A246656902E03E004B1C1AD04B005B18C0
:100B5000DB00EF180A008C46E95E7B881BB2002B95
:100B6000F1DA01235B42DC17BB60FC60824205D0F6
:100B7000534631801B893B8053461A8160464B1C8B
:100B8000E4D15446E5E6A3686345B7D9C2E76B1CD8
:100B900000D0EAE6F8E65B4658461B69984700280D
:100BA0001BD153461B8822692381EFF3108372B651
:100BB00011680029FCD0BFF35F8F514662880A801C
:100BC00022696580BFF35F8F0021116083F3108875
:100BD000B4E6864200D8F8E6B0E65B461A685B6881
:100BE0000092019307E7B34500D848E74CE7C046B9
:100BF000200600203C70054001090010004005401F
:100C000070B52E4C2569002D04D00A212C48FFF721
:100C10002FFE70BD2B4E0321300000F00DFAE66070
:100C2000FFF77AFC284B03229C46D02322701B0638
:100C30001B6801216370254B6044A3600F23800073
:100C400020610220638063694942A18019800231DA
:100C5000198647311D83585218315A5275325C3902
:100C60009952183201319952183201319952183281
:100C700001319952083518329D5202311832995279
:100C8000183201319952183201319952183201311A
:100C900099521832013199521832013199520C4B44
:100CA0000C49DC6001303562FFF774FC0121032040
:100CB000FFF75EFC084B1D60A7E7C046E40100207B
:100CC000340600200040054040000034FFFF1000C3
:100CD00020060020010900103860054070B50100B1
:100CE0000469EFF3108C72B620680028FCD0BFF3C3
:100CF0005F8F02200D5E4C6968004019C000241807
:100D00000869002D36DB26884E80BFF35F8F0026F2
:100D100006608CF31088E3606388049801332061D7
:100D20005B0405985B0CA26060611A1C002B1FD04D
:100D300093B22804628018430A69EFF3108C72B6EC
:100D40001368002BFCD0BFF35F8F8B8823808D80CE
:100D50000B69BFF35F8F00221A608CF310880B7849
:100D600001329A40CB6808498C4663441A6070BDD2
:100D70000122DDE7BFF35F8F002303608CF310884F
:100D800001204042F3E7C0463C20000010B54389F3
:100D90000A1493421ADD53009B184269DB00D318F2
:100DA0000469EFF3108C72B62268002AFCD0BFF3FE
:100DB0005F8F5A88090494B2090C8A4208D00369EB
:100DC000BFF35F8F00221A608CF31088002010BDE3
:100DD0008022120214435C80012302698371BFF3F5
:100DE0005F8F002111608CF31088044902788C46D3
:100DF0009340C268012062441360E8E73C20000091
:100E0000F0B5C64600B582B0040000F027F9FA221A
:100E100006000F00200000230021920001F0BCFA20
:100E20008019794104000D1E02DA01242E4D64421E
:100E300006267642F71736196F41AF4214D811D003
:100E400000F00CF932003B00121A8B41002B15DC2C
:100E5000002B46D02000290000F03EF902B080BCF3
:100E6000B846F0BDA642EBD90026002700F0F6F800
:100E700032003B00121A8B41002BE9DD00F0EEF846
:100E800032003B00121A8B41002B0ADB0023019336
:100E9000164B3200009316483B00FFF71FFF01304E
:100EA000D8D000233900B0469C46124A1248536AF3
:100EB000994204D8966A4645CCD29942CAD106686E
:100EC000EFF3108772B63368002BFCD0BFF35F8F4F
:100ED0000368BFF35F8F66461E6087F3108820BFEC
:100EE000E5E7002AB6D0C9E7FFFFFF7FD108001071
:100EF000E40100200040054034060020F0B55746CC
:100F00004E46DE464546E0B506000F0085B0EFF3DD
:100F1000058399468B46002B12D0384900204B6A36
:100F2000BB4206D38A6ADB1B591E8B41B242404149
:100F3000184305B0F0BCBB46B246A946A046F0BD7A
:100F40002F4B9A46DB68984653461B7840460393DE
:100F500000F07CF84246039B040004339B009B583E
:100F60000D001B1A39003000001BA941894510DC17
:100F70000DD020BF214A0020536A5B45D9D3926A25
:100F8000DB1B591E8B41B24240411843D1E78342DB
:100F9000EFD900F063F832003B00121A8B41002BAE
:100FA0001ADB00230193174B3200009350463B009D
:100FB000FFF794FE011E0FDD104B5A6A5A451BD3F2
:100FC0009B6AB34216D35046FFF7E0FE0B4A00205F
:100FD000536A5B45ADD3D2E7084A0020536A5B45AC
:100FE000A7D30020926ADB1BB24240415A1E9341B4
:100FF00018439EE75A45E6D120BFE4E7004005408C
:10100000E4010020D1080010074943684A6A10B57E
:1010100004680020934206D8896A9B1A5A1E93419D
:10102000A1424041184310BD0040054002604360AA
:10103000004870470910001010B5024A0248FFF737
:1010400049FA10BD24500010D00500200300416A69
:101050000A00986A596A8A42FAD17047034B596A62
:101060000A00986A596A9142FAD1704700400540D7
:1010700070B504000D00174A536A1900966A536A46
:101080008B42FAD13000190024184D41AB4216D8DA
:1010900013D0104B2A005B6A9D4203D90D494B6A5D
:1010A0009342FCD3934207D10A4A02E0516A994223
:1010B00002D1916AA142F9D370BDA642E9D9054B8C
:1010C0005B6A1C005A1CEFD0012201246442E51720
:1010D0005242E3E700400540064A536A9942FCD871
:1010E00007D1044B02E05A6A914202D19A6A9042B7
:1010F000F9D8704700400540F8B5040006200D00FF
:1011000000F078F9002844D0374B3849E3185A1ECC
:1011100093418022120494465B429B0D344A9B0506
:1011200063441360334A136018000A689043FBD18C
:101130002D4B314AE31859424B4180215B00490055
:101140000620995200F056F92900C00000F000FB7B
:101150000130C3091ED1402701226262A362266BBF
:10116000F30722D4E36A254B0620E51800232B6001
:10117000266300F03FF93900800000F0E9FA70239F
:10118000E26A5A400E3313402B601D4B2363032346
:10119000A364F8BD1B4A93421ED900231A4A1B4F71
:1011A0006262A362266BF307DCD5194B144AE3187D
:1011B0001A60656AA36A0620AD01ED1800F01AF9FD
:1011C000144900F0C5FAAD020100280000F0C0FA91
:1011D0000021FFF74DFFC5E74006800E9F011A0072
:1011E0003F180300B9E7C0460080FCBF08C00040BC
:1011F00000E0004000F00040380600202C10000005
:1012000001030000FEFF0000FFFF0000C0FF3F00E1
:10121000303000004E0E0000F8B5DE464E46574610
:101220004546E0B58B4605000A991800160000F007
:101230008FFA0A9B6C001F02324B64199C46A40073
:101240006444636881469F4200D967602B1FDBB20C
:101250009846012B30D9C02380229B01E31812014C
:101260001A60294BAD0059599A4600291BD17301C8
:10127000E026226853401E40802342465B01E3186B
:101280001E60012A30D9802380229B01E3181201BD
:101290001A6053464A4667605A51F0BCBB46B24694
:1012A000A946A046F8BD586900F052FA0130430043
:1012B0001B18033BFDD2DAE75B46012BCBD1C023E1
:1012C00003229B01E3181A60023AA3681A42FCD079
:1012D0007301E0262268AD0053401E4080230A4A75
:1012E0005B019246E3181E605A4621685140032272
:1012F0000A401A6001225B469A40A3681A42FCD059
:10130000C1E7C04600800040D4050020F0B5464645
:101310004F46D646C0B51F00344B44009C462418A7
:10132000A4006444636888461600FF2B02D880231B
:101330005B006360031FDBB29A46012B30D9C023E8
:1013400080229B01E31812011A60294B850059592C
:10135000994600291BD17301E026226853401E40A4
:10136000802352465B01E3181E60012A30D9802396
:1013700080229B01E31812011A6080235B006360E6
:101380004B465F51E0BCBA46B146A846F0BD58692D
:1013900000F0DEF9013043001B18033BFDD2DAE711
:1013A0004346012BCBD1C02303229B01E3181A60D3
:1013B000023AA3681A42FCD07301E0262268850035
:1013C00053401E4080230A4A5B019146E3181E6089
:1013D00042462168514003220A401A6001234246D6
:1013E0009340A2681342FCD0C1E7C0460080004091
:1013F000D4050020014B8000C0587047D405002060
:10140000F8B5040021481E0017000D0000F0A0F9F7
:101410000100380000F09CF9069B36041B031E43B4
:101420002368002B20DB1A4B1A49E3185A1E9341FC
:101430008022920194465B421B0B174A1B036344B4
:101440001360164A13601F000A689743FBD1144BC0
:101450002560E2182123A06013602368002BFCDACA
:101460000823E6601360F8BD3F2322681340AB42B7
:10147000D9D1A3681B051B0D8342D4D1EE22E368AA
:10148000D2021340B342CED1EDE7C046001BB700F5
:101490000040FDBF08C0004000E0004000F00040F8
:1014A000043000008023024A9B000B43D362704744
:1014B00000800540002310B50100988A1B8B9847D7
:1014C00010BDC046162310B50100188802331B88D2
:1014D000984710BDF8B54746CE4680B50F1E18D0C8
:1014E00014239946043304000025012698464B46F0
:1014F0001888434621681B88984701C4431E9841B9
:1015000001350640AF42F2D13000C0BCB946B0460A
:10151000F8BD0126F8E7C046AA23064A1B0113605E
:101520008D235B00D3600449044B19605368002B82
:10153000FCDA70470040024000B0FA000060024050
:101540007047C04610B50148FEF7ACFF4850001088
:1015500070B5074D074EB54209D20024013E761BF7
:10156000B60808CD984723000134B342F9D170BDC5
:10157000884E0010C44E0010054B064A06491A60FA
:10158000064A074B1A6010000B689843FBD170475E
:1015900000E00040BFCDFBFE08C00040FE7F3C00E5
:1015A00000F00040044BDB6C002B03D18022034B86
:1015B000D2021A607047C046000011504C201150F2
:1015C000044A054B1A60054A1368DB018033FBD1DE
:1015D0007047C046FFFFFF0100F0004008C0004018
:1015E0004022034B9A675A671A67DA667047C0460B
:1015F00000F0014010B5FEF79BFF10BD70B5044D23
:10160000044CA968C022200000F098FFAC6070BDB7
:1016100000ED00E000000020002310B5294C82B04E
:10162000A367FFF779FF0122274B1A60636C012B38
:10163000FCD10322254B1A60224A936B012BFCD16B
:10164000013300930121224A22480433FFF7D8FED8
:10165000052301210093204A2048FFF7D1FE0022F4
:10166000022104201E4BFFF751FE0022012105201C
:101670001C4BFFF74BFE0022002107201A4BFFF7FF
:1016800045FE002200210820174BFFF73FFE802374
:10169000DB000093002200210920134BFFF7BCFD63
:1016A0000022104B00210620FFF730FE0420FFF738
:1016B000A1FE0E4900F04CF801000020FFF7F2FEF9
:1016C00002B010BD008000403CB0004030B000408F
:1016D000002F685900800240008C864700C00240FD
:1016E000001BB70040597307006CDC0240420F003A
:1016F00001480421014B184700020020D5140010B6
:10170000124A936F9B0815D29066D166002905D0C6
:10171000FFE7FFE7FFE7516F106F704704B58021C7
:101720000906C2175140002800D0C84303F09CFBB3
:10173000002104BDF0B5146E556E576F166FFFF79C
:10174000E3FF1466556657671667F0BD000000D0CA
:10175000114A936F9B0813D210665166002905D079
:10176000FFE7FFE7FFE7516F106F704704B50028F0
:1017700001D00020C04303F077FB002104BDC04628
:10178000F0B5146E556E576F166FFFF7E5FF1466D0
:10179000556657671667F0BD000000D094464A4A68
:1017A000926F9208624601D228E0C046F0B5464EDC
:1017B000346E756E776F366F00F020F89446424AAB
:1017C00014665566576716676246F0BD94463E4AF2
:1017D000926F9208624601D254E0C046F0B53A4E8C
:1017E000346E756E776F366F00F04CF89446364A5B
:1017F00014665566576716676246F0BD002B24DBFA
:1018000011D000293EDA00B5C943404200D1013170
:1018100000F038F8C943404200D10131DB43524265
:1018200000D1013300BD002AEBD1002801D10029ED
:1018300005D00020C90FC90701D1C043410800B538
:1018400003F00AFB0022002300BD00B500290ADBDB
:10185000DB43524200D1013300F014F8C943404247
:1018600000D1013100BDC943404200D10131DB4309
:10187000524200D1013300F005F8DB43524200D15F
:10188000013300BD002923D1002B18D1002A0CD030
:10189000BC460D4F38667A6600210023FFE7FFE75C
:1018A000FFE77A6F386F67467047002801D0074816
:1018B000010000B503F0D0FA0022002300BD0200B1
:1018C0000B00002000217047000000D0FFFFFFFF49
:1018D000002B00D0BFE0130C28D1002AE7D080B441
:1018E000114F39667A66FFE7FFE730B4040C7B6F6F
:1018F000396F1B0423433B667A66FFE7FFE7FFE788
:10190000C04684B27B6F3D6F1B0423433B667A66FF
:10191000FFE7FFE7C04600232C042D0C7A6F386FD9
:1019200000196941B0BC7047000000D0F0B5944682
:101930000025140E01D112020835140F01D1120135
:101940000435940F01D192000235D40F01D1520019
:101950000135D40B0134254F7C66254C3C660E0CBA
:1019600093B2FFE7FFE7FFE73C6F6643360C770370
:10197000BE467343DF0B5B04C01AB941130C7343BB
:10198000DB18C91ACE086643360CB64493B27343CB
:101990001F0F1B01C01AB941130C73431F0B1B050A
:1019A000C01AB941860D8F023E436643360C092D9D
:1019B00024DB520A7243801A7703460A6643360CC8
:1019C00016235B1BDE40DF40BF1964466643821B63
:1019D0007046043506330100D940A840C01900D331
:1019E0000131A24206D20023F0BD0000000000D069
:1019F000FFFFFFFF121B0130F3D3F1E709277F1B25
:101A0000FE406446A2B27243801A00D20139220C11
:101A10007243130C1204821A99410B00704604356C
:101A200013370100F940A840801900D30131002B81
:101A300002D1A2420AD2F0BD013000D30131121B03
:101A4000FAD2013BF8D1A24200D2F0BD013000D35E
:101A50000131121BF7E7F0B51C0C00D080E00CB48C
:101A600000251C0A04D11B02160E3343120208354E
:101A70001C0B04D11B01160F3343120104359C0BC0
:101A800004D19B00960F334392000235DC0B02D148
:101A900092185B4101351C00971864410134464F90
:101AA0007C66464C3C660E0CFFE7FFE7FFE7C0464E
:101AB0003C6F6643360C7703BE4697B27743C01B34
:101AC00000D20139C01B00D201399FB27743C91B34
:101AD000C91B170C77437E04FF0B801BB941CE084E
:101AE0006643360C0C2D33DBB644120B1F053A430C
:101AF0001B0B97B27743C01B00D201399FB27743CB
:101B0000C91B170C77433E043F0C801BB941860D5F
:101B10008F023E43664329277F1BFE400C3D7746DC
:101B2000AF40BF1930BCA2B2ABB272437343801A4C
:101B30009941220C7243130C1204801A994102003D
:101B40000B000137001BA941F9D2781E0021F0BD1E
:101B50000C277F1BFE4077467F0BAF40FF19E0E765
:101B600000245D1C07D0144F7D663966FFE7FFE750
:101B7000FFE7FFE73C6F95B29EB265436643401BAB
:101B8000B141150C1E0C6543664336042F0C3E43D1
:101B90002D04401BB141994204D202000B002000E9
:101BA0000021F0BD01D19042F7D3801A9941013450
:101BB0009942F2D3F6E70000000000D0FFFFFFFFDC
:101BC00048404140484018B41B4B5B68FC460193B9
:101BD00008BD04DF6B1E001018B4174B1B68FC46D1
:101BE000019308BD00DF751E00109446134A926FE2
:101BF000920809D2624618B40F4BDB68FC46019389
:101C000008BD0CDF2D2100100C4AF0B5146E556E86
:101C1000576F166F6246FFF7EEFF084A1466556667
:101C200057671667F0BD18B4034B9B68FC460193D9
:101C300008BD08DFD11F0010C8030020000000D03D
:101C4000FFB550404240504059404B40594000E0A1
:101C5000FFB5154F4C00640D03D0BC4204D10C03FA
:101C600014D80020090D09055C00640D03D0BC42A6
:101C700004D11C030AD800221B0D1B0501264B4072
:101C800009D44B4003D58B4200D18242FFBD99421B
:101C9000FCD19042FFBD0B43DB1803431343F5D047
:101CA000C9434918FFBD0000FF07000000B5FFF75A
:101CB000CFFF804100BDC04600B5FFF7C9FF01D985
:101CC000002000BD012000BD00B5FFF7B9FF01D91C
:101CD000002000BD012000BD00B5FFF7B1FF80412D
:101CE00000BD012040054A00121804D85A001218FD
:101CF00001D8002070470120704700000021002813
:101D000005D17047C1174840401AFAD0C90713B52A
:101D1000064B1B6898470CBC441CA2401005120BD4
:101D20000349091B09051943114310BD3006002062
:101D30001F04000010B54C00620D8023D218DB0098
:101D4000D21A5B057E2A10DD9E3A13DACC170903FE
:101D5000490819435242D140640001341532202A07
:101D600005DAD0400843604310BD002010BD08468E
:101D7000604310BDC80FC018013810BD18B4044B23
:101D80005B6AFC46019308BD24DFDD2200100000E1
:101D9000C8030020132370B51D78012D19D014DD60
:101DA0001F48FFF78FFB06001E48FFF78BFB1E4CFA
:101DB00080223100200000F0C1FB022D2DD01B48F5
:101DC000FFF778FB1A4B186070BD1A4B164CA364D2
:101DD000F5E7184B144C23606360A360E360236154
:101DE0006361A361E36123626362A362E3622363CD
:101DF0006363A363E36323646364A364E3642365AD
:101E00006365A365E36523666366A366E36623678C
:101E10006367A367E367A364D1E7064BA364CEE7D8
:101E20005344000053460000C80300204C33000018
:101E300030060020391E001007B5604601880A0AE6
:101E40000230DF2AFAD1C9B2820804D3028840885E
:101E50000004104300E00068014A5050039007BDA1
:101E6000C80300200FB403BC0CBCF0B50124E40788
:101E7000634000E0F0B50C0DCF0F661E3605891BE0
:101E8000640503D3C943404200D30131640D03D03C
:101E9000661CF60A07D0E41B00207F00791C890726
:101EA0008912803C24031D0DDF0F6E1E36059B1B1F
:101EB0006D0503D3DB43524200D301336D0D03D0D4
:101EC0006E1CF60A07D0ED1B00227F007B1C9B07CF
:101ED0009B12803D2D032F1B661B58D4A446202E39
:101EE00046DA20371400BC401D00BD40F2403341AB
:101EF0002A4380185941CB0F05D0C943C043002263
:101F000064425041514162464D0D28D10D0D07D11B
:101F100000281FD0241940414941013A0D0DF9D044
:101F2000640006D3013000D30131002C01D14008F8
:101F30004000013A0BD4941CE40A04D11205114468
:101F4000DB071944F0BDD907204B194300E0D9073E
:101F50000020F0BD0029DDD1002CDBD1F0BD013225
:101F6000C6074008CD0728434908002EE1D0D9E72D
:101F70003C2E29DA203E40371400BC4000D001241A
:101F8000F24014431A00BB401C43D317ACE7AC46E5
:101F9000202F08DA20360400B4400D00B540F84088
:101FA00039412843A5E73C2F0CDA203F4036040096
:101FB000B44000D00124F84004430800B1400C4371
:101FC000C117EAE710001900002494E70000F07F31
:101FD000F0B50C0D661E3605891BE60A6405640D16
:101FE00002D0651CED0A04D0002001210905803CC7
:101FF0002403A4461C0D671E3F05DB1BE70A64058E
:10200000640D02D0651CED0A04D0002201231B05DB
:10201000803C24037740644497B484B296B27443FE
:10202000070C7E43150C6F4380B26843361802D309
:10203000012000043F183004350C00197D4184460E
:1020400088B29AB250430C0C62431F0C7C438EB290
:102050007E43921902D301263604A4191604170CE4
:102060003618674101BC81B29AB25143040C6243F5
:102070001B0C5C4380B25843121802D301200004A9
:1020800024181004130C401863412D185E410020E1
:10209000474106BC88B293B258430C0C6343120C00
:1020A000544389B251435B1802D3012109046418D7
:1020B00019041A0C091862416D1856410020474155
:1020C00018BCF902720D1143F0026A0D1043ED02C3
:1020D0000A0D03D16D1940414941013B124E9B1B32
:1020E0007600B3420ED26D0007D301300026714155
:1020F0006646354301D1400840001B05C918E40776
:102100002144F0BD0BDA013306D1013004D1013195
:102110004F0D01D04908F2E7E1070020F0BD01367C
:1021200031050020EBE70000FF030000F0B51C0DB7
:10213000671E3F05DB1BE70A6405640D02D0661CC1
:10214000F60A04D0002201231B05803C2403D0257D
:102150002D060026F6432E661E096E66CE0FF61972
:10216000B44649004F0D02D07E1CF60A03D0002071
:102170000021403F3F033E1BB600B444013F7F05B2
:10218000C91B49082E6F013676089C02950D254320
:102190007543ED137543AD1301356D10F603761BD2
:1021A0000CB4CC02450D2C43A2B2B3B25A43270C57
:1021B0007B43350C6F43A4B26C431B1902D301243B
:1021C00024043F191C041D0CA4187D4124196D41E1
:1021D000009A91B2ACB26143170C7C432B0C5F4365
:1021E00092B25A43A41802D301221204BF18220447
:1021F000230C52187B41019C6C431B19520ED901D0
:102200000A434401A01A81B2B2B2514303145A43A3
:10221000360C734387B27743D617D21900277E4115
:1022200036049B191704160C7F185E417316ED18BF
:10223000F301002680337541A90F06D16400690AB5
:10224000E8055B0A184309D22FE004229444803346
:102250007541A90AA8059B0A184326D34041494164
:102260002404009A019B0D005543641B4343E41A68
:1022700095B286B27543170C7E43030C5F4392B24E
:102280005A43B61802D301221204BF183204330C89
:1022900052197B4152429C41002C02D40022013051
:1022A00051414008CA071043490802B06246D707A7
:1022B0009210084BD218084B9A4203D21205891883
:1022C000C919F0BD0020002A01DC3900F0BD01333E
:1022D0001905F5E7FD030000FE070000002200B528
:1022E000203200F004F8080000BD000000220B15A9
:1022F0000AD410B5944600F031F81414013400DA11
:102300000021CB17144C2047002000217047624465
:10231000343A0CD40C2A07DA04009140904052421F
:102320002032D440214310BDD843D94310BD2032C0
:1023300007D40C469440524220321141D0402043F1
:1023400010BD0800C917203203D452422032104178
:1023500010BD1800190010BD0F2300100A0DCC0F7E
:10236000531E1B05C91A520503D3C943404200D36B
:102370000131520D03D0531CDB0A07D0121B002081
:102380006400611C89078912803A1203014BD21A3A
:1023900070470000FF03000051434343C9188C46B7
:1023A000110C83B24B4310B4040C614392B280B25F
:1023B000504362431C041B0C001910BC5941130408
:1023C000120CC01851416144704700004840414020
:1023D00048400E4B5B6818470C4B1B6818470C4A6B
:1023E000936F9B0802D2094BDB681847F0B5146E57
:1023F000556E576F166FFFF7F6FF054A1466556660
:1024000057671667F0BD014B9B681847C80400204A
:10241000000000D0C10FC90700D54042002817D0E6
:10242000F44603B40B4B1B68984706BC81409E38AA
:102430004042803107D20B0607D04900490AC00547
:102440001043084360470130F8E7490A8902F5E77D
:102450007047000030060020034BDB6FFC46184736
:102460007CDFFD2400100000C8040020132310B5F9
:1024700012481C78FFF726F80100012C0AD003DD72
:1024800080220F4800F05AF80E48FFF713F80E4B61
:10249000186010BD0A4C5422200000F04FF80B4B7E
:1024A0006365A365E36523666366A366E3662367E6
:1024B0006367A367E3672362E361E5E753460000D0
:1024C000C80400204C33000030060020D124001046
:1024D00007B5604601880A0A0230DF2AFAD1C9B27C
:1024E000820804D3028840880004104300E000689A
:1024F000014A5050039007BDC8040020C30FDB07FA
:1025000041000A0E07D0FF2A08D00909054A891898
:102510001943400770471900002070470249C91845
:10252000FAE70000000000380000F07F01480421B5
:10253000014B184710020020D5140010014B5B68B6
:1025400018470000100200207047C046F8B55746F3
:10255000DE464E464546E0B599460A9B07009A4638
:102560000D9B884693460B9C9B073BD10C9B9C4242
:102570003DD21E1B0B9415000C005E442A004B46F6
:10258000013521002020B847B542F7D1A0460B9C69
:10259000002C20D0454636195346321B013C185DAD
:1025A00029004B46B847002CF6D12B003500984641
:1025B0000D9B9B070FD55B46EC1A0C9BA3420AD9D7
:1025C000464698462A004B46310020200134B84741
:1025D00001354445F6D32800F0BCBB46B246A946B7
:1025E000A046F8BD16001500002CD3D1E0E7160078
:1025F0001500002CCED1EEE7F0B54546DE46574635
:102600004E46E0B585B09C4610AB1B78149F9346B0
:1026100098460F9C129E139DBB074CD4002D42D1AF
:10262000B44248D201233B4099460E9B013B9A4657
:10263000302304E0524601341355A64201D9202C20
:10264000F8D14B46002B00D183E00E9B013B99460D
:102650003023A54205D82EE04A4601341355AC423A
:1026600029D0202CF8D1FB060CD57B0554D4A642EA
:1026700063D0A54261D0119B102B50D0022B57D0B4
:10268000202C32D1202301930E9B5A4600930397AE
:1026900063460295FFF75AFF05B0F0BCBB46B24651
:1026A000A946A046F0BD01233B40994601233B4289
:1026B0002AD1B442B9D3FB061CD57B05DBD4002C50
:1026C000D5D1119B102B5BD0119B022B6BD03023EB
:1026D00001240E9A13704346002B10D17B073ED580
:1026E0002B260E9A631C1655CDE7230001343026A5
:1026F0000E9AD654202CC5D04346002BEED02D2662
:102700000E9A631C1655BEE74346002B2FD0013DA1
:10271000B44200D289E798E7119B102BB2D1BB06D7
:1027200037D5202CAED058230E9A13550134A7E785
:10273000202CA7D02300013407E0631E012CC0D059
:10274000119A102A31D0022AD1D162260E9AD6547B
:1027500096E7FB06CED57B0500D488E78BE7230000
:102760003E0790D520260E9A013316558BE70C2391
:102770003B405A1E9341ED1AB44200D255E764E73C
:10278000BB060ED478230E9A0224137030235370A4
:10279000A1E7202C00D175E778230E9A1355013458
:1027A0006EE75823EFE76033EDE70E9AA61E9146D9
:1027B0004E44BA0602D55822327098E77822327019
:1027C00095E7C04610B5002800D110BD01F080FC8F
:1027D000FBE7C0460B0010B5002802D049681B6813
:1027E000984710BDF0B55746DE464E464546E0B523
:1027F00095B083460F00924698461E9A1F9B100084
:102800001900209EFFF76DFA002800D0EAE11E981B
:102810001F990122C54B5242FFF748FA002800D009
:1028200014E11E981F990122C14B5242FFF754FA3E
:10283000002800D0E9E01E981F990022BD4BFFF749
:102840004BFA002800D0C8E01E981F990022BA4B0E
:10285000FFF72CFA002800D0BFE01E981F99002235
:102860000023FFF723FA002800D0E4E000230B93B5
:10287000229B5B0500D406260024302307E01721A5
:1028800006AA013452181355013E202C01D0092EFE
:10289000F5D81E981F99FFF74DFAA84BF2009B1828
:1028A0001A685B68050008920993FFF72BFA02008B
:1028B0000B001E981F99FFF786F9089A099BFFF7EE
:1028C000B2F906900791FFF759FA8146FFF716FA19
:1028D00002000B0006980799FFF775F90022984B44
:1028E00006900791FFF7F8F9002800D10DE10123C8
:1028F0009C46E1444846FFF701FA02000B000898A5
:102900000999FFF7D9F9002802D00023994601352B
:10291000002E00D1D9E006954D46B94614E006AA2E
:10292000944617230A216344280001341F19FEF737
:102930000FFF3031397028000A21013EFEF708FFF1
:10294000092D00D817E10500202CE8D14F46069D3F
:1029500020240CAE06AA17239446634499465B468E
:10296000B34606930FE04B4628000A210134E618CF
:10297000FEF7C6FE3031280031700A21FEF7C0FE96
:10298000051E00D1E4E0202CEDD1069B5E469B465F
:102990000323229A1340012B18D1219B002B15D021
:1029A0000B9B002B00D1FDE0219B013B2193202BB1
:1029B0000CD93023219A07E0172006A90134091801
:1029C0000B55944200D3CCE0202CF5D1229B0194EE
:1029D0000393219B0096029322E0229B524604938C
:1029E000219B3900039358461E9B1F9C029600931F
:1029F0000194434600F04AF90400200015B0F0BCF1
:102A0000BB46B246A946A046F0BD229B5B070FD449
:102A100003224C4B22990192039121990093029138
:102A20004346524639005846FFF790FD0400E4E75C
:102A30000422454BEEE71E9A1F9B00200021FFF762
:102A4000C2F801231E901F910B9311E7229B54465D
:102A50009B0711D1219B042B0ED9219B55469C46E7
:102A60005E46043C64442A00434601353900202078
:102A7000B047A542F7D1B346344D26002B1F9946E7
:102A80005B46A3461C003200E87843463900013D0E
:102A9000A04701364D45F6D123005C469B46229B5C
:102AA00004349B07A9D55346219AE31A9A42A4D924
:102AB0005E4615002200434639002020B0475346A9
:102AC0000134E31A9D42F5D897E72800FFF71AF979
:102AD00002000B001E981F99FFF775F80022184B93
:102AE00006900791FFF7E2F80CAE002800D031E71E
:102AF000069807990022124BFFF7EEF8002800D045
:102B000028E7012301359D4324E700220698079911
:102B10000B4BFFF7CBF8002800D0F9E64B46002B13
:102B20005CD101239C46E144F2E6C046FFFFEFFF83
:102B3000FFFFEF7F65CDCD4165CDCDC1C8520010FF
:102B40000000E03F9C50001094500010A450001072
:102B5000069B5E469B460323229A1340012B00D11D
:102B600081E0202C00D131E70B9B002B27D02D23B7
:102B7000335501342AE74F46069D202C00D1E7E665
:102B80003022331907E0172006A9013409180A5525
:102B9000202C00D1DCE6A342F5D12E220CAE01346C
:102BA000F254D7E60C23229A134257D0219B013BC3
:102BB0002193A34200D9FCE6202C00D106E7229BFA
:102BC0005B0703D52B2333550134FFE6229B1B07FC
:102BD00000D4FBE6202333550134F7E6DB0700D4AD
:102BE00096E69EE7229B55469B0711D1219B032B1E
:102BF0000ED9219B54469C465E46033D6544220007
:102C00004346013439002020B047AC42F7D1B346E7
:102C1000B9465F461C4EEC1C2A00B0784346494634
:102C20000135B847013EAC42F6D1229BBB464F4628
:102C30009B0700D4E1E65346219AE31A9A4200D852
:102C4000DBE65E4615002200434639002020B047EF
:102C500053460134E31AAB42F5D3CEE6219BA3429F
:102C600000D9A6E6B2E6219B002B00D179E70B9BA9
:102C7000002B97D0219B013B21939C4200D298E6E8
:102C8000202C00D073E7A1E6A0500010F0B5DE467E
:102C900057464E464546E0B599B081468B4692462A
:102CA0009846229A239B10001900FFF71AF8002873
:102CB00000D0CAE0229823990122824B5242FFF7AA
:102CC0000BF8002800D0C0E02298239901227E4B07
:102CD0005242FEF7EBFF002800D0B6E0229823997D
:102CE00000220023FEF7E2FF002800D0C9E1229B6A
:102CF000239C08930994089809998023269ADB005D
:102D00001A400D928022269C1201144022000B943E
:102D1000269C07000E001C4200D0ADE00B000343D0
:102D200000D0D5E0002A00D00AE222000633249326
:102D3000022313400C930223134200D002E2259B8E
:102D4000042B00D20FE2043B0B93002304250A93CB
:102D50000022229823990023FEF7A8FF002800D024
:102D600003E25A4B269A134004930B9B0393249B34
:102D70000293089B099C009301945946434652468E
:102D80004846FFF72FFD02002020269B1F27034007
:102D900059424B415B421840531C089359464346E5
:102DA0004530C8470A9AD317D4185C40D30F0A930A
:102DB0006B1E0B9308AB9C460025674401E0202D59
:102DC0000FD020000A21FEF7C3FC01357E193031F7
:102DD000317020000A21FEF7BBFC26000400092EFA
:102DE000EDD8052306930B9B5946059300230493C6
:102DF0000A3303930A9B4846029310AB0093089A48
:102E000043460195FFF7F8FB0C9B002B2DD0534652
:102E1000C41A259BA34228D94D465F4681461E0011
:102E2000534639001A19202043460134A847A642C8
:102E3000F6D8534648462599C21A013200239142DA
:102E400000D386E1013018180FE0269B0493259BE0
:102E50000393249B0293229B239C0093019443465B
:102E6000524659464846FFF7BDFC19B0F0BCBB4678
:102E7000B246A946A046F0BD01432BD10B9B2200D0
:102E8000002B00D154E700230A93249B0A9A0024C4
:102E9000934200DD85E12298239900220023FEF76A
:102EA00005FF002800D035E1269B084A02941A400D
:102EB0008023DB0013430493259B0393089B099C09
:102EC000CBE7C046FFFFEF7FFFFFEFFFFFF7FFFFFE
:102ED00006232493B44B70009C46400D6044FEF7DB
:102EE00011FFB24AB24BFEF79EFEB24AB24BFEF75A
:102EF00073FE3603B14B360B334304000D0038002C
:102F000019000022AE4BFEF75EFEAE4AAE4BFEF756
:102F10008AFE02000B0020002900FEF75DFEFEF78E
:102F200009FF0A90FEF7EEFEA84AA94B04000D0027
:102F3000FEF779FE0022A74BFEF74EFEFEF7FAFEE3
:102F4000A54A0600A54B20002900FEF76CFE0400F0
:102F500030000D000C96FEF7D5FEA14AA14BFEF7FE
:102F600062FE02000B0020002900FEF72CFE02008A
:102F70000B0006000F00FEF756FE320004000D00A5
:102F80003B0030003900FEF727FE00220E900F9123
:102F9000954B20002900FEF728FE0022934BFEF7F8
:102FA0001BFE02000B0020002900FEF71EFE00227F
:102FB0008F4BFEF711FE02000B0020002900FEF7E8
:102FC00014FE0D008021040032003B000020C905E2
:102FD000FEF7F9FD02000B0020002900FEF7FCFDC2
:102FE00002000B000E980F99FEF7FFFD0022734BB5
:102FF000FEF7F2FD7F4B0C9C9C46644400222305A7
:10300000FEF711FE06000F0002000B000898099958
:10301000FEF74CFE00280AD00A9B3000013B390025
:103020000A930022714BFEF7E0FD06000F000A9A9A
:10303000330063323900C62A12D8022226980425AA
:1030400010400B9A0C90002A25D1259B042B05D902
:10305000002800D0A1E0259B043B0B93042541E010
:103060000222269810400B9A0C90002A12D1259B20
:10307000052B76D9002872D1259B0525053B0B939E
:1030800034E0802212069446229B0893239B6344DB
:10309000099330E605250B4300D1F6E60898099917
:1030A000554A564BFEF710FE002808D0089809999B
:1030B0000022534BFEF7FAFD002800D0E5E6249BE2
:1030C000002B1CD00D9B002B19D0249B013B24937B
:1030D000259BAB4204D90C9B002B5AD002230C93A6
:1030E00000230B930A9B002B00D131E60898099925
:1030F00032003B00FEF779FD0890099128E6259BF8
:10310000AB42EDD90C9B002B43D000230B93023331
:103110000C93E7E78020269B3A4A00061A4080235A
:1031200084460294089C099D2900DB001343049304
:10313000259B6144220003930B00009201938EE6CD
:103140000524A8E600230B930A93023304250C936D
:10315000FEE553468C46013B63441B1A72E602238C
:103160000C930525C2E70423EDE58020089E099F06
:10317000000639008446269A224B6144134004938A
:103180000B9B32000393249B02930B00009201934C
:10319000F3E5259B5B1B0B93A4E7022304250C930B
:1031A000A0E79C1A013C76E601FCFFFFFB799F50EB
:1031B0001344D33FB3C8608B288AC63F0000F03F5A
:1031C0000000F83F61436F63A787D23F71A379097D
:1031D0004F930A400000E03F1655B5BBB16B02406B
:1031E000EF39FAFE422EE63F00002C40000024405A
:1031F00000001840FF0300002D431CEBE2361A3F8D
:1032000080842E41FFF7FFFFF0B5DE4657464E465D
:103210004546E0B5A5B01E002E9B92460C93CD4AC4
:10322000CD4B80468B461A60002900D1EAE100238D
:1032300030789946002800D1ECE1C84B4C460B93FE
:10324000C74B454657460E930AE0631C984622003A
:103250003B005946A84744463078002800D187E013
:1032600001362528F1D108239A46043B9946023BB2
:103270009846013B00229C460D943078711C030057
:10328000203BDBB2102B03D80B9C9B00E3589F46DE
:103290000300303B89460D9C092B3AD90023984600
:1032A0002A2800D1C1E000239A462E284BD00300E3
:1032B000683BDBB2122B1ED80E999B00CB589F4661
:1032C00063460E001A43D8E743460E001A43D4E77C
:1032D0004B460E001A43D0E710230E001A43CCE7EA
:1032E00053460E001A43C8E780235B001A43FF3B96
:1032F0009C467078E1444E4667284FD82428A4D9CC
:103300000300253BDBB2422B9FD896499B00CB584C
:103310009F46002394461E0000E00131B3009B1934
:103320005B001E180878303E0300303B092BF4D9AF
:103330000123624689469C460023B0469A460E0009
:10334000E1442E28B3D13021802049428C46C00070
:10335000024370784B4684446146092900D86CE1E9
:103360002A2800D17AE101239C464E46E1449EE79B
:10337000A146A846BA46CA4503D801235B42534436
:10338000994653464A4659460020C047200025B07A
:10339000F0BCBB46B246A946A046F0BD0300693B5F
:1033A000DBB20D930F2B00D94FE7012199408C46DA
:1033B0006D49894661464B4619400F91634649461F
:1033C0000B4200D028E10D9B0A2B3AD0072B00D0EE
:1033D0003BE70C9B190008C98846002B00D14BE144
:1033E00021200243914614A98C461F220F216244DA
:1033F0008C4651460D950C91A24615000F9902E09E
:1034000020290CD0130064461C4020003730092CC2
:1034100000D80738013168541A090F2BF0D80C9BDB
:1034200054460D9D9A460F9133E10C9B02CB884682
:10343000002947DB0C9301239C4670784E46E144FB
:1034400031E70C9B02CB14935346002B00D138E19B
:103450009C4608780B000C908C44002801D100F0A9
:1034600098FC89466146944603E05A780133002A65
:1034700001D08B42F9D1494662465B1A0C900F93FA
:10348000530500D520E10223180010400D9013428F
:1034900000D1CBE30D930B1BB1469A465E460C98C8
:1034A00022003B003100A84753460134185D002834
:1034B000F6D1B3464E460D9B002B00D0C7E1149BBE
:1034C0000C93C9E60C9301239C46283849420243D9
:1034D000884670784E46E144E5E670786C2800D165
:1034E0007FE180235B001A43FF3B9C46E14402E7F7
:1034F00080239B001A4301239C467078E144FAE63E
:103500007078682800D173E180231A437F3B9C4682
:10351000E144F0E6672800D103E1472800D15AE1F1
:10352000452800D15AE10492072142460C9B0392A0
:10353000073352468B43190002920CC928000092AF
:1035400001930C9122003B005946FFF79FFB0400BA
:1035500082E6C04609320010040600202C510010FB
:1035600070510010BC51001041900000462800D15D
:10357000DBE00492072142460C9B0392073352463C
:103580008B43190002920CC92800009201930C9100
:1035900022003B005946FFF725F904005CE6631C56
:1035A000984622003B0059462520A847444653E64A
:1035B0000C9B04330D93631C9946920700D422E1BF
:1035C0000C9B2200187859463B00A84743464444C8
:1035D000012B00D885E23300B8462E005F46250057
:1035E0004C46994622004346013439002020B0471A
:1035F000AC42F7D12C00BB46350047464E460D9BEA
:103600000C9329E6DB4B3078984600239946002836
:1036100000D012E60024AEE66F2800D188E000D882
:103620000BE31023782800D1CFE09A430A239C466D
:1036300000230F930A330D9380E05646B100891999
:10364000490001330E181878303E0100303909293D
:10365000F4D9B2461E000133994628E60C9B023687
:1036600002CB8A46C9435046C917084082460C938C
:103670003078731C99461AE61023100098431133D2
:103680001843814680201300C0000340024200D14D
:10369000A9E64B460693082305935346049310234B
:1036A0000393002302930F9B220001931CAB009312
:1036B00059463B002800FEF79FFF434604000C9349
:1036C000CAE501235B42C3E60F9B534501D953462C
:1036D0000F930223180010400D90134200D1B7E160
:1036E0000D93D1460B1B9A463300A1442E002200B5
:1036F0004D460C98B9465F469B4608E04B4639005C
:10370000541CB0475346185D002877D022009542DC
:10371000F4D15B46BB464F46A94635004C461E00D9
:10372000C9E680231B011A43FDE620231A4320E744
:1037300008239C4600230F9308330D938023110028
:10374000DB0019401A4200D116E10D239A43100004
:10375000802302009B001A401492184200D0C2E15C
:10376000802302005B001A4091460C9A04320F92AB
:10377000184200D0B7E2430600D59FE1030600D40B
:1037800019E30C9B1B880993002B00D0FCE110333C
:103790009843002900D1F7E1002399464346059359
:1037A000534604930D9B069003930023D2E05828C0
:1037B00008D0622867D102239C4600230F9302336E
:1037C0000D93BBE720231A43103B9C4600230F9325
:1037D00010330D93B2E780231B011A4320231A43B1
:1037E000A1E6C0239B001A43F31C9946B07882E5FA
:1037F000C0231A43F31C9946B0787CE535005E4639
:10380000BB464F4657E64346012B00D863E1631E93
:1038100043449A463300B9462E005F4655469B46C0
:10382000A24622004B46013439002020B047AC426A
:10383000F7D135005E46BB464F46A14654460C9B29
:103840004A46187859463B004444A847D7E6A14663
:103850000F9B984500D832E64444E41A3300B8463A
:103860002E005F4625004C4699462200434601340F
:1038700039002020B047AC42F7D12C00BB463500C0
:1038800047464E461BE680231000DB0018401A42D4
:1038900000D10FE1112118008A430D920D9A802367
:1038A00011009B0019408C461A4269D180231100F7
:1038B0005B00194089460C9904310F911A4200D0DF
:1038C000CAE113005B0600D5F0E013001B0600D42C
:1038D00059E20C9B00229B5ED9175A184A4092B2BB
:1038E000D90F0C91002B00D1F9E1100014AA9446D5
:1038F00042461F23149252466344A84616944D46EE
:103900000400B946B2461F00159201E0202D0FD0E9
:1039100020000A21FDF71CFF01357E19303131707E
:1039200020000A21FDF714FF26000400092EEDD81F
:10393000149B4F46A94645469846159B56469A46BF
:10394000169C0D9B069343460593534604930A2306
:1039500003930C9B02934B4601931CAB22000093F4
:1039600059463B002800FEF747FE0F9B04000C93CE
:1039700072E4C046492500100C239A431000E7E684
:1039800007220C9B07339343013294469C446246C2
:103990000C920CCBD90F0F911100194300D191E07B
:1039A000D9171391129151401091139959401191C7
:1039B00010981199129A139B801A994110901191A5
:1039C00014AA0023944642469946149252461F3345
:1039D0006344A846B24616944E46109C119DB946C3
:1039E00015921F0001E0202E10D0200029000A228D
:1039F0000023FDF7EBFE013630322B00BA550D00E7
:103A000022000400002BEED1092AECD8149B10945C
:103A1000119545469846159B4F46B14656469A46DF
:103A2000169C0D9B069343460593534604930A2325
:103A300003930F9B02934B4601931CAB2200009310
:103A400059463B002800FEF7D7FD0400FFF704FCB1
:103A50000F9B984500D8C1E18023DB000D934346BE
:103A60000F9A1B199B1A994633002E004D46B946F2
:103A70005F469B460C9122004B46013439002020C2
:103A8000B047AC42F7D143460C9901330F930B7802
:103A900035000C935E46BB464F46002B00D10EE529
:103AA0000D9B002B00D1F6E4002319E60C9B1B783C
:103AB0001A0015E710239A430D92EFE60C9B1B7832
:103AC000099361E6002399460028AAD10022002329
:103AD0001092119374E70C9B2200187859463B0012
:103AE000A8474C468BE50C9AFA3BFF3B07329A43BA
:103AF0000133994691444B460C93136852681592D2
:103B00001A4306D11032904300220992002900D0B6
:103B100081E06122810600D54122D2B20A9214AA24
:103B200091460A9A00210A3A149242461792524646
:103B300018925A460991B3461F311E000F9B494403
:103B4000BA4619941A950024674698468946159DE9
:103B500016901B920AE03032D2B24B4601341A550D
:103B6000A8454AD0202C4AD006000D003A00002378
:103B700030002900FDF72AFED2B2092AEBD9149BA6
:103B80009C466244D2B2E8E76123820600D5412315
:103B9000DBB20A3B0C93434614A91F228C461593B3
:103BA00053466244A046B2464C461797A9461700B2
:103BB000099D0D9E1490169308E03033DBB201345A
:103BC0003B55B5420ED3202C0CD005003100280007
:103BD000FDF7BEFDCBB20929EFD90C9A9446634498
:103BE000DBB2ECE7159B4D46A14644469846169B32
:103BF000564614989A46179FD0E5B742B2D9179BFC
:103C000057469846189B5E469A461B9B09949B46CE
:103C10001698199C1A9D43460593534604930D9B91
:103C20000690039300230293099B05E70F9B984599
:103C300000D914E701330F932DE4102311009943A9
:103C40000D91692800D0BAE080231000DB001840F5
:103C50001A4200D122E61DE60C9B1B68DA0F110008
:103C6000002B00D18CE0DA179818504014AA914626
:103C700042461F23149252464B44A046A94616972B
:103C800004006546B2461F000C91159201E0202DFC
:103C90000FD020000A21FDF75BFD01357E19303180
:103CA000317020000A21FDF753FD26000400092E83
:103CB000EDD8149B444698460C9BAC461900159BC6
:103CC00056464D469A46169F0D9B029106934346D3
:103CD0000593534604930A23039363463CE6002866
:103CE00000D02EE602E60C9B1B689946002B03D100
:103CF00010339843002938D16123820600D541232F
:103D0000DBB20A3B0C9343461693534614A91F2279
:103D10008C4617932B006244A0464D46B246189736
:103D200099461700149C0D9E159008E03033DBB2C5
:103D300001343B55B5420ED3202C0CD00500310088
:103D40002800FDF705FDCBB20929EFD90C9A94465E
:103D50006344DBB2ECE7169B149444469846179BE9
:103D600056464D469A461598189F43460593534626
:103D700004930D9B0690039300230293149BEBE5A1
:103D80000028A1D172E70C9B1B68D9175A184A402A
:103D9000A6E580231000DB0018409C460F901A42D5
:103DA0000FD00220030013400F93104219D00023BC
:103DB000A1460F934CE50C9B1B680993E4E40A00B1
:103DC00034E40223180010400D90134200D03EE569
:103DD0004346002B00D042E6FFF771FB01330F93FF
:103DE0007FE463460D93F3E710B50C0084B00394B1
:103DF000012402A902900093034813006242FFF7D6
:103E000003FA04B010BDC046D527001010B5094A0A
:103E10000300146884B0002C08D0012200910648E9
:103E2000524203A9A047012004B010BD00F09AF946
:103E30000020F9E704060020C527001000BEFDE7BA
:103E400010B5FFF7FBFFC04670B5FDF781FB074DCE
:103E5000074EB54209D20024013E761BB60808CDB4
:103E6000984723000134B342F9D170BDC44E00100D
:103E7000C84E0010030010B5080011001B689847D9
:103E800010BDC046F0B5C64600B5437D07000C0026
:103E90001600002B46D0002A17DD0B780A2B24D001
:103EA00000239846012E13D001252900635C0135BB
:103EB0000A2B26D0B542F8D1464509DCA419013CAD
:103EC00023780D3B5A4253413B7580BCB846F0BD48
:103ED0004346E018A419F11A013C3B68984723783F
:103EE0000D3B5A4253413B75EFE7037D002BD7D181
:103EF00002210F483B689847012EDFD001239846E6
:103F0000D2E7631E5B5C0D2BD4D0884504DA4346B0
:103F1000C91AE0183B689847022105483B68A84643
:103F20009847C7E70368110020009847CDE7C046CF
:103F300018530010F0B5C6460B6806000C0000B51B
:103F4000802B06D05A1C2260E418267180BCB8462B
:103F5000F0BD0F4B1D68002D16D00B1D98460D4F60
:103F600002E02D69002D0FD02B68002BF9D03B68A3
:103F7000002B01D0AB42F4D1280041462268FFF764
:103F800081FF2D69002DEFD101220023DBE7C04620
:103F9000FC05002000060020F0B54546DE464E46F2
:103FA0005746E0B583B091461C0080460D00FDF7F2
:103FB00055F80023304A12184B41002B02DA012237
:103FC0002E4B52422E4908008A4600F055FF07004A
:103FD0006B1C03D1404600F007FF0500002C27D0E2
:103FE000284E294B1C68002C18D04B46002B21D1A1
:103FF000264B994602E02469002C0FD02368002B41
:10400000F9D04B461B68002B01D09C42F3D1200015
:104010002A004146B0472469002CEFD1002F26D159
:10402000280003B0F0BCBB46B246A946A046F0BD8E
:10403000174ED6E7154B99460A239B4602E02469A2
:10404000002CEBD02368002BF9D04B461B68002BCB
:1040500001D0A342F3D12A0041462000B0476B466D
:104060005A462000DA71D91D0122B047E7E75046D1
:1040700000F0EAFED4E7C04640420F00FFFFFF7F9A
:1040800040020020853E0010FC05002000060020B4
:10409000753E00100A4A1368002B05D10CE01A0087
:1040A0001B691032002B07D08342F8D1002902D1BE
:1040B00018691060196170470029FCD01060FAE798
:1040C000FC05002010B500F0ABF9012010BDC04682
:1040D000F0B5CE46474680B583B06B460600DD1D81
:1040E0002870FCF7BBFF0023194A12184B41002B24
:1040F00002DA0122174B524217490800884600F0A5
:10410000BBFE164B81461C68002C14D0144F02E0F5
:104110002469002C0FD02368002BF9D03B68002BBA
:1041200001D09C42F4D1200001222900FFF7AAFE11
:104130002469002CEFD14B46002B05D1300003B091
:10414000C0BCB946B046F0BD404600F07DFEF5E784
:1041500040420F00FFFFFF7F40020020FC050020CF
:104160000006002070B5040000F03EFE01230100AF
:10417000050001222000FFF70FFF084B1C68002CF0
:1041800006D06368002B05D098472469002CF8D12D
:10419000280070BD2469002CF3D1F9E7FC0500204C
:1041A000F0B5CE46474680B5A3B004000D00FCF73D
:1041B00055FF0023274A12184B41002B02DA012237
:1041C000254B5242254E300000F056FE00232200BF
:1041D000019307002B00224801A9FFF705FE214BA0
:1041E000804699461C68019B002B1AD0002C2FD0CA
:1041F0001D4D02E02469002C0FD02368002BF9D05C
:104200002B68002B01D0A342F4D12000019A02A90F
:10421000FFF738FE2469002CEFD14B461C680023C1
:104220000193002C06D06368002B0BD098472469BB
:10423000002CF8D1002F07D1404623B0C0BCB946AE
:10424000B046F0BD2469ECE7300000F0FDFDF3E777
:104250000194EFE740420F00FFFFFF7F4002002084
:10426000353F0010FC050020000600200FB400B50B
:1042700083B004A901C90191FFF792FF03B008BC04
:1042800004B01847F0B5002915DD0E4B0D271A684C
:104290000D4B0E4CD3185D426B41451820215B003D
:1042A0001E5F0478A64207D093691942FCD1013001
:1042B0001460A842F5D1F0BD93691942FCD1176092
:1042C000F2E7C0463C0600200080FCBF3806002014
:1042D000204B70B504000D1E1E682ADD0020102141
:1042E0001D4B013C1A689369194214D1013093693E
:1042F0001942FCD1136823548542F4D1002E08D012
:1043000050239363516B183B0B4014498C46624415
:104310001360280070BD002E08D050239363516BAA
:10432000183B0B400D498C46624413600028F1D1C4
:104330000CE0002E0AD05022074B1B689A63596B81
:10434000183A0A4005498C4663441A6003204042EB
:10435000E0E7C046C80500203C06002034100000FD
:10436000064B10B51B68002B06D00021044A1268CA
:104370009163044A1068984710BDC046C8050020E4
:104380003C060020CC0500200822034B19688B69ED
:104390001A42FCD17047C0463C060020F8B51A4FBF
:1043A0001A4B3A680500D31858424341184E14334B
:1043B0001C003368002D02D0002B0FD0F8BD002B5D
:1043C000FCD0002120009563FCF7D2F820001149B1
:1043D000FCF70AF9104B35601D60EFE70E4B20002B
:1043E00019600C493560FCF7D5F801212000FCF775
:1043F000BFF850223B689A63596B183A0A40074944
:104400008C4663441A60D9E73C0600200080FCBF5C
:10441000C805002061430010CC05002034100000C6
:104420000D4B10B51B780D4B0D4C1B780D4B02211D
:104430001B780D4B00202360FCF706F802210120B9
:10444000FCF702F8E12120684902FCF755FE012142
:104450000648FFF71FFE10BD5C53001058530010B4
:104460003C0600205453001000400340200200206E
:10447000F0B557464E464546DE46E0B5060085B0E7
:10448000009200221C0002930EAB187833680F9D37
:10449000DA6601325960109FDA660190221E00DC54
:1044A000BFE0013A9346002D03D001213800A84710
:1044B00033685A4631798902002A00D183E000220C
:1044C000002091464C46009A125D0A4302431A614D
:1044D00010229046002D1AD0002404E04146336893
:1044E0005A6B114229D100213800A8470443E4B295
:1044F0000028F3D002235B4299464846019B337162
:1045000005B0F0BCBB46B246A946A046F0BD80242B
:104510004846596B0A42FCD019598C46002957D19C
:10452000834571D002990130814275D000218345C5
:104530004CD00099095C1961EBE780229958002959
:1045400015D1002C15D1CB4554D001239C46029B9C
:10455000E1444B45D1D001213800A8470021CB458B
:104560001BD04A46009B9A5C33681A61B4E7012469
:104570005B6D80239B009A465B468B46039304E069
:10458000514633685A6B0A420DD100213800A847C2
:104590000443E4B20028F3D0ACE733680120019A69
:1045A000504040028EE7039A59461B6E9346002CFA
:1045B000CBD0002903D0CB0701D409079DD4012318
:1045C0005B42994699E700229146E7E78146E5E795
:1045D000596D012188468021814618008900436B6E
:1045E0000B42FCD00300196E41464846002999D081
:1045F0006146DEE7019B002BBBD001235B4499465B
:10460000029B4B45A7D178E70199002906D059466E
:10461000481C0299814289D181466EE70021884673
:10462000D9E70023994668E7F0B54E465746454618
:10463000DE46E0B583B09A460CAB1B78019200933E
:104640000E9B026899460023D36601335160D366FE
:10465000534605000D9E002B60DD01235B42534451
:104660009B460024002E03D001214846B0472A680B
:1046700080235B009C461300516F1029FCD0002161
:10468000002C01D129798902A34541D0604601431C
:104690001161002E27D080224027904608E000219B
:1046A0004846B04700283BD12B689A6F002A13D1A7
:1046B00042469A585A6B1742F1D0002148465B6D2A
:1046C000B047C4432000009B2B7103B0F0BCBB4635
:1046D000B246A946A046F0BD1B69019A13550134A4
:1046E0005445C1D1EEE780274021D359536B19427D
:1046F00003D00124536D6442E4E7936F002BF4D0A0
:104700001369019A135501345445DBD02A68B2E786
:104710000127009847407F023943B7E70024D1E7DB
:1047200002246442CEE7C046F8B5DE4657464E4600
:1047300045468346E0B505200C00FCF75BFE06000D
:10474000600821008019FDF703F843009846804473
:10475000070005214046FCF7FBFF3B1A9A461E4B1B
:104760008146700080199C4231D81C49FCF7F0FF4B
:10477000451C5B461C680023E366226804335A40EC
:104780000233134080225201A21813605346E361A2
:104790004B462362434601204F2B03D9502140460C
:1047A000FCF7D6FFA023E050E36F39005D400C4BCF
:1047B0002D042D0CE3181D6001233000E366FCF787
:1047C000C7FFF0BCBB46B246A946A046F8BD0549A6
:1047D000FCF7BEFF451CCCE73F420F0080969800D7
:1047E0007C10000040787D010F4A70B5821A531E7C
:1047F0009A410E4BD20008321A600D4B0D4C1A60D4
:10480000150023689D432B1EFAD166240268FF34ED
:104810000571D5661460633C8833FF3CD5639563AE
:10482000D450FFF781FF70BD3802002000E0004047
:1048300000F0004008C00040F0B5CE46474680B5C5
:1048400089B01F0010AB1B780400994604AB984652
:104850001600129A139B40460D00FCF7E7FB4346F7
:1048600002934B460190009332003B002900200048
:10487000FFF7FEFD09B0C0BCB946B046F0BDC0466A
:10488000F0B5CE46474680B589B01F0010AB1B7807
:104890000400994604AB98461600129A139B4046B2
:1048A0000D00FCF7C3FB434602934B460190009377
:1048B00032003B0029002000FFF7B6FE09B0C0BC63
:1048C000B946B046F0BDC046F0B56C46257E277DA2
:1048D000247F102D25D006D8002D2AD0082D07D1F1
:1048E000E426B60506E0182D02D1E826B60501E05B
:1048F000FE26B605016042608360077345738473CA
:104900000661102C0BD006D8002C10D0082C0BD12F
:10491000094B4361F0BD182C06D1084BF9E7084B51
:10492000F7E7E626B605E5E7FE239B05F1E7054B2D
:10493000EFE7E226B605DDE72D237A3C90C1793D0D
:1049400090C1F93C2D23FA3BF0B5040087B08549AE
:104950000068FFF749FF03216068FBF775FD03213D
:10496000A068FBF771FD002201216068FBF786FD5E
:1049700000220121A068FBF781FD6A467A4B256879
:104980009382267BFCF76AFB0023784A8018594102
:10499000002902DA01207649404200230290039167
:1049A000009331002800023305AAFFF745FF0228D3
:1049B00002D0002007B0F0BD6230FCF721FA752369
:1049C0006A4613752568267BFCF748FB0023674A77
:1049D00080185941002902DA01206549404201232B
:1049E0000290039100933100280005AAFFF724FFED
:1049F0000128DED12668277BFCF730FB00235B4AC9
:104A00001325801859416D44002902DA01205849C4
:104A1000404200230290039100932A0039003000A5
:104A20000133FFF72DFF0128C3D12B78682BC0D1AC
:104A30006C236A46FF3393822568267BFCF70EFBC6
:104A400000234A4A80185941002902DA01204849C6
:104A5000404200230290039100933100280002336A
:104A600005AAFFF7E9FE0228A3D10830FCF7C8F930
:104A700019236A4693822568267BFCF7EFFA002308
:104A80003A4A80185941002902DA01203849404247
:104A9000002302900391009331002800023305AAFD
:104AA000FFF7CAFE022800D083E71A236A469382E2
:104AB0002568267BFCF7D2FA00232C4A801859413E
:104AC000002902DA01202A49404200230290039182
:104AD000009331002800023305AAFFF7ADFE02283B
:104AE00000D066E71B226946A37B0A754B752568D3
:104AF000267BFCF7B3FA00231C4A80185941002991
:104B000002DA01201A4940420023029003910093E7
:104B100031002800023305AAFFF78EFE022800D0DC
:104B200047E71C226946637B0A754B752568247B21
:104B3000FCF794FA00230D4A12184B41002B02DABD
:104B400001220B4B52420292039300232100009357
:104B50002800023305AAFFF76FFE0238434258418E
:104B600028E7C046A08601006B80FFFF10270000E9
:104B7000FFFFFF7FF0B5C64600B588B03B236A460D
:104B8000D37506000D000468077BFCF767FA002365
:104B90001F4A80185941002902DA01201D4940426C
:104BA00001231722029003910093200039006A44E8
:104BB000FFF742FE0400012805D00024200008B0C1
:104BC00080BCB846F0BD3368377B9846FCF746FAA0
:104BD00000230F4A06AE80185941002902DA01204D
:104BE0000C494042002302900391009332003900A7
:104BF00040460633FFF744FE0628DED133885BBA11
:104C00002B8073885BBA6B80B3885BBAAB80D5E7C7
:104C100010270000FFFFFF7FF0B5C64600B588B043
:104C200043236A46D37506000D000468077BFCF732
:104C300015FA00231F4A80185941002902DA012081
:104C40001D49404201231722029003910093200046
:104C500039006A44FFF7F0FD0400012805D0002464
:104C6000200008B080BCB846F0BD3368377B98465A
:104C7000FCF7F4F900230F4A06AE801859410029C9
:104C800002DA01200C494042002302900391009374
:104C90003200390040460633FFF7F2FD0628DED128
:104CA00033885BBA2B8073885BBA6B80B3885BBA3E
:104CB000AB80D5E710270000FFFFFF7FF0B5C646A9
:104CC00000B586B041236A46D37406000D0004681F
:104CD000077BFCF7C3F900231C4A801859410029BF
:104CE00002DA01201A494042012313220290039163
:104CF0000093200039006A44FFF79EFD040001285C
:104D000005D00024200006B080BCB846F0BD336852
:104D1000377B9846FCF7A2F900230C4A05AE8018B1
:104D20005941002902DA012009494042002302903A
:104D3000039100933200390040460233FFF7A0FD93
:104D40000228DED133885BBA2B80DBE71027000016
:104D5000FFFFFF7F10B5FDF75DFB0349FDF73FFB4C
:104D60000249FDF739FB10BD0000AA43B81E1242EC
:104D700070B505000023C85E14000E00FDF74AFB65
:104D80002969FDF740FB20600223F05EFDF742FB3E
:104D90002969FDF738FB60600423F05EFDF73AFBFC
:104DA0002969FDF730FBA06070BDC04670B50500F5
:104DB0000023C85E14000E00FDF72CFB6969FDF7A7
:104DC00022FB20600223F05EFDF724FB6969FDF7FA
:104DD0001AFB60600423F05EFDF71CFB6969FDF7B8
:104DE00012FBA06070BDC04610B583070AD0030057
:104DF000032102E001330B4205D01A78002AF9D1D1
:104E0000181A10BD030019680C4A0D4C8A188A4301
:104E100022420FD15968094A04338A188A43224230
:104E200008D15968054A04338A188A432242F1D0CE
:104E300000E001331A78002AFBD1E1E7FFFEFEFE15
:104E400080808080F8B5C04601B40248844601BC29
:104E5000604700BF5901002001B40248844601BCEC
:104E6000604700BF8101002001B40248844601BCB4
:104E7000604700BF8101002001B40248844601BCA4
:104E8000604700BFC100002079150010A515001073
:104E9000F11600102D250010951D00106D24001036
:104EA00019160010C1150010E1150010F5150010BD
:104EB00081080010FD150010010C001041150010B4
:084EC0004D050010B1020010C5
:104EC800496E696369616E646F20746573746520E7
:104ED800646F204D5055363035302E2E2E00000090
:104EE80046616C6861206E6120696E696369616CF6
:104EF800697A6163616F20646F204D505536303593
:104F080030210000566572696669717565206173A4
:104F180020636F6E65786F6573204932432C206576
:104F28006E64657265636F2065206F2073656E73AC
:104F38006F722E004D50553630353020696E6963DA
:104F480069616C697A61646F20636F6D2073756342
:104F58006573736F210000004572726F20616F20C6
:104F68006C6572206163656C65726F6D6574726FD4
:104F7800210000004572726F20616F206C657220FD
:104F88006769726F73636F70696F21004572726F22
:104F980020616F206C65722074656D706572617434
:104FA8007572612100000000416363656C3A205806
:104FB8003D252E3266672C20593D252E3266672CFA
:104FC800205A3D252E326667207C20004779726F73
:104FD8003A20583D252E32666470732C20593D25A1
:104FE8002E32666470732C205A3D252E326664700A
:104FF80073207C200000000054656D703A20252E37
:10500800326620430A0000000A2A2A2A2050414E0C
:105018004943202A2A2A0A000A00000048617264CB
:105028007761726520616C61726D20256420616C06
:10503800726561647920636C61696D656400000064
:1050480048617264206173736572740052656C659F
:1050580061736500626F6F74325F77323571303813
:1050680030000000322E312E310000007069636F6D
:10507800000000007069636F5F656D6200000000EA
:105088004D6179203231203230323500666E692B1D
:1050980000000000666E69006E616E00666E692D24
:1050A800000000005541525420737464696E00007A
:1050B80055415254207374646F75740055415254AD
:1050C80020737464696E202F207374646F75740084
:1050D80006005250D3F0754254500010060052504A
:1050E800E182887F5C50001006005250ABB36053D9
:1050F8006C50001006005250BBFF3CB674500010B4
:1051080006005250861C03027C50001006005250C4
:105118005422A29D8850001005005250DE65F468A4
:10512800E8540010E0320010903200109032001065
:10513800D8320010903200109032001090320010D7
:10514800903200109032001090320010903200100F
:10515800D032001090320010C83200109032001087
:1051680090320010C032001000350010F6320010E6
:10517800F0340010F6320010DA340010F632001065
:10518800F6320010F6320010F6320010F632001037
:10519800F6320010F6320010E8320010F632001035
:1051A800F6320010F6320010F6320010F632001017
:1051B800E83200109E3500104A3200104A320010C2
:1051C8004A3200104A3200104A3200104A320010A7
:1051D8004A3200104A3200104A3200104A32001097
:1051E8004A3200104A3200104A3200104A32001087
:1051F8004A3200104A3200104A3200104A32001077
:105208004A3200104A3200104A3200104A32001066
:105218004A3200104A3200104A3200104A32001056
:105228004A3200104A3200104A3200104A32001046
:105238004A320010143500106C3500101435001077
:105248004A3200104A3200104A3200104A32001026
:105258004A3200104A3200104A3200104A32001016
:105268004A3200104A3200104A3200104A32001006
:105278004A3200104A3200104A3200104A320010F6
:10528800AE3700104A3200104A3200104A3200107D
:105298004A3200104A3200104A3200104A320010D6
:1052A8004A3200104A320010AE370010B0350010F4
:1052B800AE370010143500106C350010143500108E
:1052C800000000000000F03F000000000000244043
:1052D80000000000000059400000000000408F401E
:1052E800000000000088C34000000000006AF84089
:1052F8000000000080842E4100000000D0126341AD
:105308000000000084D797410000000065CDCD4122
:105318000D0A00000600525053B4F4A1C450001006
:10532800080052501200000008005250921000006D
:10533800D8500010E4500010F0500010FC5000103D
:105348000851001014510010205100103053001063
:08535800285300101C53001043
:10536000F0B5C646150000B504001E000268EFF354
:10537000108172B61368002BFCD0BFF35F8F04233B
:10538000E3562268002B2BDBBFF35F8F00201060F9
:1053900081F31088D02212061278002752B290466C
:1053A0009A420ED1002080BCB846F0BDBFF35F8F9B
:1053B000176081F310882800310000F035F80028CC
:1053C000F0D12268EFF3108172B61368002BFCD085
:1053D000BFF35F8F237922687F2BE7D9434602E032
:1053E000D0231B061B682371BFF35F8F002313605C
:1053F00081F310880120D6E70268EFF3108172B6BE
:105400001368002BFCD0BFF35F8FFF230371036889
:10541000BFF35F8F00221A6081F3108840BF70478E
:105420007047C0460000000001B40248844601BC39
:10543000604700BFFD0E00101000000000000000DB
:105440000000010000000000000000000000020059
:105450000000000000000000000003000000000049
:10546000000000000000FF000000000001B54868D7
:1054700001318E460047704609380149884701BD11
:10548000BD07001000000000000000000000000048
:1054900000000000000000004802002000000000A2
:1054A000503300004C3300005433000052330000EE
:1054B0004D5300004D4300005334000043340000BE
:1054C0008542001089430010D14200109D43001016
:1054D0000000000000010000004004400000000047
:0854E0000000000000000000C4
:04000005100001E9FD
:00000001FF
